:020000040800F2
:10000000E09E0020CD010008C9060008C1060008D6
:10001000C5060008A9030008510B000800000000F5
:1000200000000000000000000000000009080008B7
:10003000870400080000000051070008F5080008C8
:10004000E7010008E7010008E7010008E7010008F0
:10005000E7010008E7010008E7010008E7010008E0
:10006000E7010008E7010008E7010008E7010008D0
:10007000E7010008E7010008AD030008E7010008F8
:10008000E7010008E7010008E7010008E7010008B0
:10009000E7010008E7010008E7010008E7010008A0
:1000A000E7010008E7010008E7010008E701000890
:1000B000E7010008E7010008E7010008E701000880
:1000C000E7010008E7010008E7010008E701000870
:1000D000E7010008750A0008E7010008E7010008C9
:1000E000E7010008E7010008E7010008E701000850
:1000F000E7010008E7010008E7010008E701000840
:10010000E7010008E7010008E7010008E70100082F
:10011000E7010008E701000859090008E7010008A5
:10012000E7010008E7010008E7010008E70100080F
:1001300000F002F800F03AF80AA090E8000C8244BF
:100140008344AAF10107DA4501D100F02FF8AFF29C
:10015000090EBAE80F0013F0010F18BFFB1A43F0A5
:1001600001031847B4220000D4220000103A24BF33
:1001700078C878C1FAD8520724BF30C830C144BF0C
:1001800004680C607047000000230024002500264E
:10019000103A28BF78C1FBD8520728BF30C148BFEA
:1001A0000B6070471FB51FBD10B510BD00F0C9F83A
:1001B0001146FFF7F7FF01F001FC00F0E7F803B488
:1001C000FFF7F2FF03BC00F0FDFC00000948804788
:1001D00009480047FEE7FEE7FEE7FEE7FEE7FEE729
:1001E000FEE7FEE7FEE7FEE704480549054A064B41
:1001F00070470000F908000831010008E09800206D
:10020000E09E0020E09A0020E09A0020704710B5A0
:10021000431C02E010F8011B71B18107FAD14FF0C5
:10022000013202C88C1A8C4314EAC211F9D0C01AE8
:100230000A0603D0C01E10BDC01A10BD0A0401D0AA
:10024000801E10BD0902FCD0401E10BD032A40F2E2
:10025000308010F0030C00F0158011F8013BBCF168
:10026000020F624498BF11F801CB00F8013B38BF80
:1002700011F8013BA2F1040298BF00F801CB38BF8E
:1002800000F8013B11F0030300F02980083AC0F0A8
:10029000088051F8043B083A51F804CBA0E8081054
:1002A000F5E7121D5CBF51F8043B40F8043BAFF387
:1002B0000080D20724BF11F8013B11F801CB48BFE1
:1002C00011F8012B24BF00F8013B00F801CB48BF17
:1002D00000F8012B7047704770477047704710B5A2
:1002E000203AC0F00B80B1E81850203AA0E818502E
:1002F000B1E81850A0E81850BFF4F5AF5FEA027CEF
:1003000024BFB1E81850A0E8185044BF18C918C05D
:10031000BDE810405FEA827C24BF51F8043B40F8FE
:10032000043B08BF7047D20728BF31F8023B48BFE3
:1003300011F8012B28BF20F8023B48BF00F8012B21
:100340007047754600F02CF8AE46050069465346E6
:1003500020F00700854618B020B5FFF745FFBDE83F
:1003600020404FF000064FF000074FF000084FF01C
:10037000000B21F00701AC46ACE8C009ACE8C009AD
:10038000ACE8C009ACE8C0098D46704710B504461A
:10039000AFF300802046BDE81040FFF710BF00001B
:1003A000004870478098002000BFFEE710B54FF46A
:1003B000005000F029F8012804D1034908704003D7
:1003C00000F004F810BD00000E00002000F0805185
:1003D00011B10349086001E002494860704700001C
:1003E000040402400000024021B1026842F0010210
:1003F000026004E002684FF6FE731A400260704724
:100400000146486880B2704701460020002201F092
:10041000805313B1054B1A6801E0054B1A6802EAD4
:1004200001030BB1012000E00020704700040240EE
:10043000000002401AB103680B43036002E0036846
:100440008B430360704710B50022026847F6F073D3
:100450009A430C6A8B6823430C6923434C692343FA
:100460008C692343CC6923434C6A23438C6A23431E
:100470001A430260CB6843600B6883604B68C360BB
:1004800010BD41607047704751B18200A2F1C04277
:10049000126842F001038200A2F1C042136009E039
:1004A0008200A2F1C0421268034B1A408300A3F1FC
:1004B000C0431A6070470000FEFF0F00D0E9011230
:1004C0001143C268114302691143426911438269B1
:1004D0001143C2691143026A1143426A1143826A9D
:1004E0001143C26A1143026B114302689200A2F1E8
:1004F000C0421160816808290BD101688900A1F10F
:10050000C041096841F0400201688900A1F1C04181
:100510000A60416B0968426B526841EA0211426B02
:10052000926841EA0221426B928941EA0241426BA0
:10053000128A41EA0251426B127D41EA0261426B2A
:10054000926911430268521C9200A2F1C0421160EC
:10055000C16AB1F5804F1BD1816B0968826B52680B
:1005600041EA0211826B926841EA0221826B128A8F
:1005700041EA0251826B127D41EA0261826B92690B
:10058000114302689200A2F1C042C2F8041107E0D0
:100590006FF0704201688900A1F1C041C1F80421E7
:1005A00070472DE9F0410246002500260020002377
:1005B0000024002791F803C00CF00F0591F803C048
:1005C0000CF0100CBCF1000F03D091F802C04CEA03
:1005D000050591F800C0BCF1000F31D0146800206F
:1005E0002BE04FF0010C0CFA00F3B1F800C00CEA5C
:1005F00003069E4220D183004FF00F0C0CFA03F744
:10060000BC4305FA03FC4CEA040491F803C0BCF1B6
:10061000280F06D14FF0010C0CFA00FCC2F814C0F0
:100620000AE091F803C0BCF1480F05D14FF0010C6E
:100630000CFA00FCC2F810C0401C0828D1D314608A
:10064000B1F800C0BCF1FF0F34DD546800202EE08B
:1006500000F1080C4FF0010808FA0CF3B1F800C0E3
:100660000CEA03069E4221D183004FF00F0C0CFAD6
:1006700003F7BC4305FA03FC4CEA040491F803C0F9
:10068000BCF1280F05D100F1080C08FA0CF8C2F8EB
:10069000148091F803C0BCF1480F07D100F1080C99
:1006A0004FF0010808FA0CF8C2F81080401C082826
:1006B000CED35460BDE8F08141617047016170475D
:1006C00000BFFEE700BFFEE77047000070B50021E5
:1006D00000230F22C47804B3154C246804F4E064AA
:1006E000C4F5E064210AC1F10403CA40447804FA65
:1006F00003F184781440214309010E4C0678A1557A
:10070000047804F01F050124AC4005786D11AD009C
:1007100005F1E025C5F8004109E0047804F01F0563
:100720000124AC40044D0678761145F8264070BD92
:100730000CED00E000E400E080E100E0024901434C
:10074000024A1160704700000000FA050CED00E05D
:100750007047000029B1064A52690243044B5A61AE
:1007600004E0034A52698243014B5A61704700001A
:100770000010024029B1064AD2690243044BDA61F3
:1007800004E0034AD2698243014BDA6170470000FA
:100790000010024029B1064A92690243044B9A6153
:1007A00004E0034A92698243014B9A61704700005A
:1007B0000010024021B1028842F04002028004E0B1
:1007C00002884FF6BF731A400280704710B50022AE
:1007D000028802F441520B884C8823438C882343BF
:1007E000CC8823430C8923434C8923438C8923439E
:1007F000CC8923431A430280838B4FF2FF7423403A
:1008000083830B8A038210BD704710B500F002F895
:1008100010BD00000CB50020019000903348006826
:1008200040F480303149086000BF3048006800F46F
:10083000003000900198401C0190009818B9019870
:10084000B0F5A06FF1D12948006800F4003010B174
:100850000120009001E0002000900098012843D181
:100860002348006840F010002149086008460068ED
:1008700020F0030008600846006840F002000860AD
:100880001A48406819494860084640684860084668
:10089000406840F4806048600846406820F47C105E
:1008A00048600846406840F4E81048600846006820
:1008B00040F08070086000BF0C48006800F00070D5
:1008C0000028F9D00948406820F003000749486033
:1008D0000846406840F00200486000BF0348406896
:1008E00000F00C000828F9D10CBD000000100240F7
:1008F000002002407047000010B51348006840F027
:1009000001001149086008464068104908400E4936
:100910004860084600680E4908400B4908600846D0
:10092000006820F4802008600846406820F4FE003B
:1009300048604FF41F008860FFF767FF4FF00060CA
:100940000449086010BD0000001002400000FFF8DC
:10095000FFFFF6FE08ED00E010B50121054800F0AC
:100960001DF8012805D101F053FA0121014800F0DA
:1009700006F810BD00100040CA4302827047CA4307
:100980000282704721B1028842F00102028004E035
:1009900002884FF6FE731A400280704730B5024657
:1009A000002000230024158A05EA0103958905EA41
:1009B000010413B10CB1012000E0002030BD1AB1D8
:1009C00083890B43838102E083898B438381704752
:1009D000002202881D4B98420ED01D4B98420BD02E
:1009E000B0F1804F08D01B4B984205D01A4B98426B
:1009F00002D01A4B984204D14FF68F731A404B889D
:100A00001A43174B984207D0164B984204D04FF622
:100A1000FF431A40CB881A4302808B8883850B885A
:100A200003850A4B98420BD0094B984208D00E4BD5
:100A3000984205D00D4B984202D00D4B984201D1FF
:100A40000B7A03860123838270470000002C01404B
:100A5000003401400004004000080040000C004049
:100A600000100040001400400040014000440140DC
:100A70000048014010B5002440F22441124800F023
:100A800038F801281FD140F224410F4800F022F825
:100A90000D4800F058F800210C48FFF7A5FC0B4862
:100AA000FFF7AEFCC0F1400084B22246084901F1D4
:100AB000820001F0A0F840210448FFF7E2FC012188
:100AC0000248FFF791FC10BD003801405800024079
:100AD0001800002010B50022002340F66A14A1423D
:100AE00000D100BF0A1201249440A3B2DC43048069
:100AF00010BD70B50246002400230025002040F6FA
:100B00006A16B14200D100BFC1F3421501F01F03C4
:100B1000012606FA03F3012D02D19689334006E03F
:100B2000022D02D1168A334001E0968A33400C121E
:100B3000012606FA04F41688344013B10CB10120E2
:100B400000E0002070BD01468888C0F308007047AF
:100B500000BFFEE710B500240CE000F00FF80649D6
:100B6000884205D0601CC4B2052C03DD002010BDF6
:100B70000120FCE7F1E700001740EF002DE9F0410C
:100B800001210F48FFF798FD9F2001F0D3F8FF20C7
:100B900001F0D0F80446FF2001F0CCF80546FF2014
:100BA00001F0C8F8064601210548FFF787FD20043B
:100BB00040EA052040EA06073846BDE8F08100001B
:100BC0000010014000BF7047014903C97047000091
:100BD000000000200178062934D2DFE801F0030B81
:100BE000131B232B1949497E21F00101491C174A87
:100BF000517628E01549497E21F00201891C134AEB
:100C0000517620E01149497E21F00401091D0F4A67
:100C1000517618E00D49497E21F0080108310B4A50
:100C2000517610E00949497E21F010011031074A40
:100C3000517608E00549497E21F020012031034A20
:100C4000517600E000BF00BF70470000B8010020EF
:100C50003648407EC0F34000E8B13448407E20F082
:100C60000201324841764069017830484069407855
:100C7000401E814207D12D4840694078401E2B49D3
:100C80004969087051E0294840690078401C2749AB
:100C90004969087049E02548407E00F00100A8B18C
:100CA0002248407E20F001012048417640690078CA
:100CB00020B900201D494969087036E01B48406989
:100CC0000078401E1949496908702EE01748407E97
:100CD000C0F3800030B11548407E20F00401134875
:100CE000417622E01148407EC0F3C00030B10F4889
:100CF000407E20F008010D48417616E00B48407E0A
:100D0000C0F3001030B10948407E20F010010748C0
:100D100041760AE00548407EC0F3401028B1034800
:100D2000407E20F02001014841767047B801002044
:100D300010B504462CB14FF480510548FFF7BCFCB8
:100D400004E04FF480510248FFF7B8FC10BD0000EA
:100D50000014014001B500BF0098411E0091002819
:100D6000FAD108BD10B50246072A00DD10BD2048A3
:100D70000270104602EBD0714910A2EB410119B983
:100D8000F0234FF4A07402E04FF4A073F024362057
:100D900000F00AFC082141EA421000F009FC2A2078
:100DA00000F002FC002000F003FC002000F000FC3A
:100DB000591EC1F3072000F0FBFB591EC8B200F01A
:100DC000F7FB2B2000F0F0FB002000F0F1FB0020EF
:100DD00000F0EEFB611EC1F3072000F0E9FB611E8D
:100DE000C8B200F0E5FB2C2000F0DEFB00BFBDE741
:100DF0000A00002010B500F035FC00F06DFD07483A
:100E000000F0DCFB0120FFF793FF00F009FB00F08E
:100E1000E5F903480078FFF7A5FF10BDD2010020D7
:100E20000A00002010B5552200232B4800F0E6FFF1
:100E300000202A490870022048700020088528A058
:100E400048622BA048602DA12448816000202E49D3
:100E5000087001204870002008852CA048622EA050
:100E6000486000203349087006204870002008853B
:100E700031A0486233A0486035A12E48816037A177
:100E8000C16039A101613BA141613DA181614FF682
:100E9000FF703E4948814FF4FC613C48818140F23B
:100EA0001F51C1814FF6E07101820020374948701F
:100EB0000021364881707821C17000210171417193
:100EC000A02181717821C171A021017200202F49D8
:100ED00008700248486110BD70980020D497002027
:100EE000494C49393334312056312E302E300000F0
:100EF000312E73686F772D7069630000322E73791D
:100F0000732D696E666F00003C980020312E737956
:100F1000732D696E666F000020202020546968736D
:100F2000206973206120646973706C617920646545
:100F30006D6F000008980020322E73686F772D7057
:100F400069630000312E312E7069632D310000007D
:100F5000312E322E7069632D32000000312E332E77
:100F60007069632D33000000312E342E7069632DBB
:100F700034000000312E352E7069632D35000000DD
:100F8000312E362E7069632D36000000B801002026
:100F900070B55D4800F016FF002876D05A4800F082
:100FA00026FFFFF755FE5948007830B101285CD084
:100FB00002286DD003286AD17AE0002009E0534965
:100FC0000A780A3131F81220103121F81020411C22
:100FD00088B2B0F5964FF2DB4C494969486AFFF791
:100FE00016F9C4B2494840692246416A002000F01F
:100FF000ADFA4FF4076006E0002244491A3121F8A7
:101000001020411C88B240F6E8018842F4DB00243D
:1010100016E03E494969091D51F82400FFF7F7F829
:10102000C5B23A4A5269121D52F8241004EB8402E8
:10103000920002F114002A4600F088FA601CC4B243
:10104000324840694078A042E3DC3048406930498A
:10105000884209D02D494969097801EB810189004D
:1010600001F1140000F046FA33E0002009E02749BE
:101070000A780A3131F81220103121F81020411C71
:1010800088B2B0F5964FF2DB23E03CE000E01FE0D1
:10109000002009E01D490A780A3131F81220103188
:1010A00021F81020411C88B2B0F5964FF2DB10E019
:1010B000002009E015490A780A3131F81220103170
:1010C00021F81020411C88B2B0F5964FF2DB00E009
:1010D00000BF00BF0D4A1378521C02EB4302517847
:1010E0000A4A1378521C12F81300A023782200F049
:1010F00011F82C2000F058FA4FF4964000F0A0FAB6
:1011000000200249087070BD70980020B8010020CE
:101110003C98002030B504460D462A2000F044FAE1
:10112000200A00F045FAE0B200F042FAA118491E88
:10113000C1F30F2000F03CFAA118491EC8B200F01C
:1011400037FA2B2000F030FA280A00F031FAE8B222
:1011500000F02EFAE918491EC1F30F2000F028FA1A
:10116000E918491EC8B200F023FA30BD00B50022CC
:10117000042000F019FA00F02BF800F029F800F034
:1011800027F802464FF6FF7000EA022200F020F82E
:10119000024348F25250824201D1104600BDD32092
:1011A00000F002FA00F014F800F012F800F010F865
:1011B00002464FF6FF7000EA022200F009F80243EF
:1011C00049F24130824201D11046E7E70020E5E7CD
:1011D00001480088704700000000026000B5FFF77A
:1011E000C5FF8D4908808D48FFF7B4FDCF2000F082
:1011F000DBF9002000F0DCF9812000F0D9F9302083
:1012000000F0D6F9ED2000F0CFF9642000F0D0F91D
:10121000032000F0CDF9122000F0CAF9812000F07F
:10122000C7F9E82000F0C0F9852000F0C1F91020CE
:1012300000F0BEF9782000F0BBF9CB2000F0B4F943
:10124000392000F0B5F92C2000F0B2F9002000F0B0
:10125000AFF9342000F0ACF9032000F0A9F9F72031
:1012600000F0A2F9202000F0A3F9EA2000F09CF998
:10127000002000F09DF9002000F09AF9B12000F064
:1012800093F9002000F094F91B2000F091F9B620AA
:1012900000F08AF90A2000F08BF9A22000F088F90A
:1012A000C02000F081F9352000F082F9C12000F063
:1012B0007BF9112000F07CF9C52000F075F945207C
:1012C00000F076F9452000F073F9C72000F06CF9C2
:1012D000A22000F06DF9F22000F066F9002000F085
:1012E00067F9262000F060F9012000F061F9E020A4
:1012F00000F05AF90F2000F05BF9262000F058F9B1
:10130000242000F055F90B2000F052F90E2000F0D7
:101310004FF9092000F04CF9542000F049F9A820B9
:1013200000F046F9462000F043F90C2000F040F9A7
:10133000172000F03DF9092000F03AF90F2000F0E5
:1013400037F9072000F034F9002000F031F9E120EE
:1013500000F02AF9002000F02BF9192000F028F9FC
:101360001B2000F025F9042000F022F9102000F0E5
:101370001FF9072000F01CF92A2000F019F9472076
:1013800000F016F9392000F013F9032000F010F9ED
:10139000062000F00DF9062000F00AF9302000F0D8
:1013A00007F9382000F004F90F2000F001F9362089
:1013B00000F0FAF8C82000F0FBF82A2000F0F4F85A
:1013C000002000F0F5F8002000F0F2F8002000F016
:1013D000EFF8EF2000F0ECF82B2000F0E5F800200B
:1013E00000F0E6F8002000F0E3F8012000F0E0F85B
:1013F0003F2000F0DDF83A2000F0D6F8552000F04C
:10140000D7F8112000F0D0F842F6FC30FFF7A2FC2C
:10141000292000F0C9F800BD0800002040420F005C
:1014200010B502210648FFF747F90648FFF792FC7E
:1014300002210348FFF742F90248FFF78BFC10BD79
:101440000018014020A107002DE9F04F04460D4689
:1014500016460022A6F1200C1FFA8CF8DFF88CA0AB
:10146000BAF804A0DFF884B0BBF806B00AFB0BFCA6
:101470004FEAEC7A0CEB5A7ACAF3C707DFF86CC074
:10148000DCF800C008FB07C905F1010CCCEB0C1C13
:1014900004EBCC0C1FFA8CF2002022E0002116E0B5
:1014A00019F800A04FF0800C4CFA01FC0AEA0C0A73
:1014B000BAF1000F03D0DFF838C02CF8123002F177
:1014C000010C1FFA8CF201F1010C0CF0FF0108294C
:1014D000E6DB02F1700C1FFA8CF200F1010C0CF04B
:1014E000FF00B842DADBBDE8F08F000010000020FA
:1014F000D201002070B504465A2512A61EE02846E7
:10150000114989880844F02804DD00250E48C08868
:10151000204484B220460C49C9880844B0F5A07F15
:1015200001DD002500243278002321462846FFF7FC
:101530008BFF761C04488088284485B230780028C8
:10154000DDD170BD3C2D2D0010000020F0B504460B
:101550000D46174600261EE0304612498988084489
:10156000782804DD00260F48C088204484B2204635
:101570000C49C9880844B0F5A07F01DD002600248D
:101580002A78002321463046FFF75EFF6D1C054890
:101590008088304486B2381EA7F10101CFB2DBD17A
:1015A000F0BD0000100000204FF0C04108807047DF
:1015B00001490880704700000000026010B58CB03F
:1015C000044601210846FFF7C5F864200490002076
:1015D00003904FF480400B90164802904FF48060C7
:1015E000089000200690099001944FF480700790B5
:1015F0004020059080010A9001A90F48FEF723FFC3
:101600000E208DF8000000208DF8010003208DF8D9
:10161000020001208DF803006846FFF757F8012209
:1016200002210548FEF706FF01210448FEF7DCFE13
:101630000CB010BD000002604400024044040240AF
:1016400010B5044600210648FEF7CEFE21460448A8
:10165000FEF717FF01210248FEF7C6FE10BD00008D
:101660004400024008B501212020FFF793F8012132
:101670004020FFF78FF803208DF8020018208DF826
:1016800003004FF48040ADF8000069469048FEF733
:1016900088FF03208DF8020018208DF803004FF416
:1016A0000040ADF8000069468948FEF77AFF032044
:1016B0008DF8020018208DF803000120ADF800001D
:1016C00069468348FEF76DFF03208DF8020018205D
:1016D0008DF803000220ADF8000069467C48FEF753
:1016E00060FF03208DF8020018208DF80300802091
:1016F000ADF8000069467748FEF753FF03208DF8E8
:10170000020018208DF803004FF48070ADF800003F
:1017100069467048FEF745FF03208DF80200182047
:101720008DF803004FF40070ADF800006946694879
:10173000FEF737FF03208DF8020018208DF8030014
:101740004FF48060ADF8000069466248FEF729FF5B
:1017500003208DF8020018208DF803004FF400607C
:10176000ADF8000069465B48FEF71BFF03208DF8CB
:10177000020018208DF803004FF48050ADF80000EF
:1017800069465448FEF70DFF03208DF8020018202B
:101790008DF803004FF40050ADF8000069464D4845
:1017A000FEF7FFFE03208DF8020018208DF80300DD
:1017B0004FF48040ADF8000069464648FEF7F1FE60
:1017C00003208DF8020018208DF803004FF400402C
:1017D000ADF8000069463F48FEF7E3FE03208DF8B0
:1017E000020018208DF803004FF48070ADF800005F
:1017F00069463748FEF7D5FE03208DF80200182011
:101800008DF803004FF40070ADF8000069463048D1
:10181000FEF7C7FE03208DF8020018208DF80300A4
:101820004FF48060ADF8000069462948FEF7B9FE24
:1018300003208DF8020018208DF803001020ADF869
:10184000000069462248FEF7ACFE03208DF8020036
:1018500018208DF803002020ADF8000069461C48D0
:10186000FEF79FFE03208DF8020018208DF803007C
:101870008020ADF8000069461548FEF792FE03206F
:101880008DF8020018208DF803004FF40060ADF8C9
:10189000000069460E48FEF784FE03208DF8020022
:1018A00010208DF803000220ADF8000069460948B9
:1018B000FEF777FE03208DF8020010208DF803005C
:1018C0000002ADF8000069460148FEF76AFE08BD57
:1018D000001401400018014000B597B00121080232
:1018E000FEF738FF4FF08050079000200290012053
:1018F00001900020049005900690042003900020A1
:101900000D900620089000200C9009901390102054
:101910000B9008200A9001A81590002012901090BA
:101920000E900F9014904FF48050119001A81690D3
:1019300008A8FEF7C3FD01210620FEF7A5FD17B09C
:1019400000BD000008B501210820FEF723FF20207C
:10195000ADF8000010208DF8030003208DF8020080
:1019600069461548FEF71DFE0120ADF80000102065
:101970008DF8030003208DF8020069460E48FEF73B
:1019800010FE0220ADF8000010208DF803000320A7
:101990008DF8020069460848FEF703FE202106483C
:1019A000FEF78CFE01210448FEF788FE0221024862
:1019B000FEF784FE08BD0000000C01404FF44070AB
:1019C000FEF7BCFEFFF7BEFF00F0CCF900F07EF999
:1019D000FFF7C0F8FFF70EFAFFF724FA03E000F074
:1019E0001FF8FFF7D5FAFAE700BF0188491C828883
:1019F00091FBF2F302FB13110180C188491CC180E5
:101A00000189491E0181028800F10B01895CAA2924
:101A100004D0C2888188891F8A42E6DC70470000B2
:101A200070B5ADF5147D464800F0CCF9002872D0B1
:101A3000434800F0DCF9FC2242496846FEF706FC08
:101A40004FF486723F49103941A8FEF7FFFB41A8C9
:101A50000FC800F079F8012802D10DF5147D70BD92
:101A600038489238B0F882108D30405CAA285FD197
:101A7000062084A9FC22CDE93F1032496846FEF7D2
:101A8000E5FB4FF486722F49103941A8FEF7DEFBC3
:101A900041A80FC800F094F89DF81202841D84A894
:101AA000FC222849CDE93F046846FEF7CFFB4FF4FE
:101AB00086722449103941A8FEF7C8FB41A80FC817
:101AC00000F07EF8A04200D0C7E700250026E01E07
:101AD00084A9085CA84209D1A01E085CB04205D1C7
:101AE00022461848103800F049F804E0154810382C
:101AF000FFF77AFFB1E79DF8110211280FD005DC3E
:101B000050B1012809D0102810D107E0202807D0B3
:101B100021280BD109E010E009E008E007E006E029
:101B20000DF21320FFF756F801E000E000BF04E0DB
:101B300004481038FFF758FF8FE700BF8DE700001B
:101B4000A6010020AA0000200FB40220BDF800105A
:101B5000BDF80220914204D19DF80A1009B9012074
:101B60000AE0BDF80010BDF80220914204D19DF8B2
:101B70000A10012900D1022004B0704770B5034655
:101B80001C89944200DA1A89104613E01D8803F17B
:101B90000B04645D01F8014B1C88641C9D8894FB58
:101BA000F5F605FB16441C80DC88641CDC801C896F
:101BB000641E1C81141EA2F10105AAB2E6D170BDFB
:101BC0000FB430B5469D479CBDF80C1000200CE0CA
:101BD000BDF810208A4200D100210DF11702525C9D
:101BE0002A54421C90B24A1C91B2A042F0DB20461B
:101BF00030BC5DF814FB30B50346D888904200DB5A
:101C000009B9002030BD13E011F8014B5D8803F1E4
:101C10000B0044555888401C9C8890FBF4F504FB4D
:101C200015005880D888401ED8801889401C18811B
:101C3000101EA2F10104A2B2E6D158881C88A0426D
:101C400002D10120987201E0002098720120D9E7AA
:101C500008B501210420FEF79DFD01211020FEF7AB
:101C600099FD0120ADF8000010208DF8030003203D
:101C70008DF8020069461348FEF793FC2020ADF86A
:101C8000000018208DF8030069460F48FEF789FC14
:101C90008020ADF8000018208DF8030069460A483E
:101CA000FEF77FFC4020ADF8000004208DF8030013
:101CB00069460548FEF775FC01210248FEF7FEFC67
:101CC00008BD0000001001400008014010B500F000
:101CD00003F8FFF7BDFF10BD00B585B00121080373
:101CE000FEF758FD0020ADF800004FF48270ADF80B
:101CF00002000020ADF804000220ADF8060001202B
:101D0000ADF808004002ADF80A000820ADF80C005C
:101D10000020ADF80E000720ADF810006946044819
:101D2000FEF754FD01210248FEF744FD05B000BD59
:101D300000300140014600BF0948008900F0020060
:101D40000028F9D00648818100BF0548008900F0CD
:101D500001000028F9D002488089C0B27047000015
:101D6000003001401FB501211020FEF703FD4FF4A4
:101D70007A70ADF808004720ADF8040001A91048BA
:101D8000FEF726FE01210E48FEF7F6FD0122114660
:101D90000B48FEF714FE01210948FEF7F3FD36203B
:101DA0008DF8000000208DF8010003208DF802005E
:101DB00001208DF803006846FEF788FC1FBD000077
:101DC00000100040F0B50246FEF7FEFE16685768A8
:101DD000851B61EB07016B1C41F100049168D06821
:101DE000C91AA04101D20120F0BD0020FCE700B5D6
:101DF0000246FEF7E9FE1060516000BD10B50446D2
:101E0000A260E360FEF7E0FE2060616010BD0000AC
:101E10000448D0E900305A1C40F100000149C1E9F2
:101E200000207047000000200000000000000000BB
:101E3000000000000000000000000018181818182A
:101E400018080008180000000000003424242400B2
:101E500000000000000000000000000016247F24A5
:101E600024247E2424000000000000083E68486806
:101E70001C1612127C10100000000061D29674082B
:101E800010162949C6000000000000003C646438B8
:101E9000724ACE467F000000000000181818180093
:101EA00000000000000000000000000408181030CE
:101EB0003030301010180C04000000201008080CFE
:101EC0000404040C08181020000000080A341C6ADE
:101ED00008000000000000000000000000001818CA
:101EE000187F181818000000000000000000000013
:101EF000000000181808300000000000000000007A
:101F0000003C000000000000000000000000000095
:101F100000000018180000000000000206040C0871
:101F20000810102020400000000000003C664247DE
:101F30005B7342663C00000000000000187848080F
:101F4000080808087E000000000000003C46060665
:101F5000040810207E000000000000007C0606043B
:101F60003C0202067C000000000000000C1C14244F
:101F70006444FF0404000000000000007E60606014
:101F80007E0202067C000000000000001E30604857
:101F9000764242623C000000000000007E0206041F
:101FA0000C08181030000000000000003C624236AF
:101FB0001C6642423C000000000000003C664242B9
:101FC000661A0204780000000000000000001818E3
:101FD00000000018180000000000000000001818A1
:101FE000000000181808300000000000000004186D
:101FF0003060100C0600000000000000000000002F
:102000007E007E000000000000000000000030188C
:1020100004060C1020000000000000301C0606061C
:1020200018100010100000000000001C224141DDCB
:10203000B5A5A5AF94C0403C00000000181C342496
:1020400026627E43C1000000000000007C4642463C
:102050007C4242427C000000000000001E20404004
:10206000404040603E000000000000007C464243CB
:102070004343424678000000000000007E6060603C
:102080007E6060607E000000000000007E60606096
:102090007E60606060000000000000001E60404044
:1020A000CE4242623E000000000000004242424236
:1020B0007E42424242000000000000007E181818D4
:1020C000181818187E000000000000007C040404AA
:1020D000040404447800000000000000424448501A
:1020E00070584C44420000000000000020202020D6
:1020F000202020203E000000000000006266675F94
:102100005B5BC1C1C100000000000000626272524E
:102110005A4A4E4646000000000000003C6243C39D
:10212000C3C343623C000000000000007C46424202
:102130004678404040000000000000003C6243C37D
:10214000C3C343623C180F00000000007C66626657
:102150007C6C646662000000000000003E6040602D
:102160001C0602027C000000000000007F18181806
:1021700018181818180000000000000042424242DF
:10218000424242623C00000000000000C143426243
:102190002624341C1800000000000000C1C1414981
:1021A0005B5B766666000000000000004366341842
:1021B000181C2466C300000000000000C142663401
:1021C0001C18181818000000000000007E02040C03
:1021D000181020607E0000000000001C101010107D
:1021E000101010101010101C0000004020201010C3
:1021F00008080C04060200000000003C0C0C0C0C4B
:102200000C0C0C0C0C0C0C3C00000000181C246284
:1022100000000000000000000000000000000000BE
:1022200000000000000000FF00000020100000007F
:1022300000000000000000000000000000003C065C
:10224000023E42467A0000000000004040405C62CE
:10225000424242427C0000000000000000001E20BC
:10226000604060203E0000000000000202023E626A
:10227000424242663A0000000000000000003C625A
:10228000427E40603E0000000000000F1810107EEB
:1022900010101010100000000000000000003F6649
:1022A000426658403E43423C0000004040405C6271
:1022B0004242424242000000000000181800780824
:1022C000080808087E000000000000040C007C04E0
:1022D0000404040404040C78000000606060626C74
:1022E0007870686462000000000000780808080840
:1022F000080808087E000000000000000000764B7F
:102300004B4B4B4B4B0000000000000000005C6298
:1023100042424242420000000000000000003C62D5
:10232000424342623C0000000000000000005C628A
:10233000424242427C4040400000000000003E62B9
:10234000424242663A0202020000000000006E7241
:1023500063606060600000000000000000003E203C
:10236000203C06027C000000000000001010FE105F
:10237000101010101E00000000000000000042427B
:10238000424242663A000000000000000000434262
:102390006624341818000000000000000000C1C1CD
:1023A0005B5A5E66660000000000000000006226C6
:1023B0001C181C26620000000000000000004342C0
:1023C0006624341C181830E00000000000007E066F
:1023D0000C1810207E0000000000000E18101010D5
:1023E000307010101010180E0000080808080808B7
:1023F000080808080808080800000030180808083D
:102400000C0E08080808183000000000000000004A
:10241000714B060000000000382400080000002076
:10242000180000006C01000850240008180000206B
:10243000C89E0000880100080000000000000000A5
:1024400000000600FFFF0100281E00080800100021
:0400000508000131BD
:00000001FF
