:020000040800F2
:1000000060A30020CD01000839080008E1070008BE
:100010003508000839040008271100080000000016
:100020000000000000000000000000004D0A000871
:100030001705000800000000C1080008390B00087F
:10004000E7010008E7010008E7010008E7010008F0
:10005000E7010008E7010008E7010008E7010008E0
:10006000E7010008E7010008E7010008E7010008D0
:10007000E7010008E70100083D040008E701000867
:10008000E7010008E7010008E7010008E7010008B0
:10009000E7010008E7010008E7010008E7010008A0
:1000A000E7010008E7010008E7010008E701000890
:1000B000E7010008E7010008E7010008E701000880
:1000C000E7010008E7010008E7010008E701000870
:1000D000E7010008DD0E0008E7010008E70100085D
:1000E000E7010008E7010008E7010008E701000850
:1000F000E7010008E7010008E7010008E701000840
:10010000E7010008E7010008E7010008E70100082F
:10011000E7010008E70100089D0B0008E70100085F
:10012000E7010008E7010008E7010008E70100080F
:1001300000F002F800F03AF80AA090E8000C8244BF
:100140008344AAF10107DA4501D100F02FF8AFF29C
:10015000090EBAE80F0013F0010F18BFFB1A43F0A5
:1001600001031847882F0000A82F0000103A24BF71
:1001700078C878C1FAD8520724BF30C830C144BF0C
:1001800004680C607047000000230024002500264E
:10019000103A28BF78C1FBD8520728BF30C148BFEA
:1001A0000B6070471FB51FBD10B510BD00F012F9F0
:1001B0001146FFF7F7FF02F065F800F030F903B4DD
:1001C000FFF7F2FF03BC00F0E9FF00000948804799
:1001D00009480047FEE7FEE7FEE7FEE7FEE7FEE729
:1001E000FEE7FEE7FEE7FEE704480549054A064B41
:1001F000704700003D0B00083101000860990020A5
:1002000060A30020609D0020609D0020704710B515
:10021000431C02E010F8011B71B18107FAD14FF0C5
:10022000013202C88C1A8C4314EAC211F9D0C01AE8
:100230000A0603D0C01E10BDC01A10BD0A0401D0AA
:10024000801E10BD0902FCD0401E10BD032A40F2E2
:10025000308010F0030C00F0158011F8013BBCF168
:10026000020F624498BF11F801CB00F8013B38BF80
:1002700011F8013BA2F1040298BF00F801CB38BF8E
:1002800000F8013B11F0030300F04B80083AC0F086
:10029000088051F8043B083A51F804CBA0E8081054
:1002A000F5E7121D5CBF51F8043B40F8043BAFF387
:1002B0000080D20724BF11F8013B11F801CB48BFE1
:1002C00011F8012B24BF00F8013B00F801CB48BF17
:1002D00000F8012B70474FF000020429C0F0128093
:1002E00010F0030C00F05180CCF1040CBCF1020FB3
:1002F00018BF00F8012BA8BF20F8022BA1EB0C01BE
:1003000000F043B85FEAC17C24BF00F8012B00F87D
:10031000012B48BF00F8012B7047704770477047AA
:10032000704710B5203AC0F00B80B1E81850203A61
:10033000A0E81850B1E81850A0E81850BFF4F5AF85
:100340005FEA027C24BFB1E81850A0E8185044BF0F
:1003500018C918C0BDE810405FEA827C24BF51F87C
:10036000043B40F8043B08BF7047D20728BF31F870
:10037000023B48BF11F8012B28BF20F8023B48BFC1
:1003800000F8012B70474FF0000200B51346944669
:100390009646203922BFA0E80C50A0E80C50B1F1DD
:1003A0002001BFF4F7AF090728BFA0E80C5048BFF1
:1003B0000CC05DF804EB890028BF40F8042B08BF8F
:1003C000704748BF20F8022B11F0804F18BF00F88B
:1003D000012B7047754600F02BF8AE4605006946C4
:1003E000534620F00700854618B020B5FFF7FCFE05
:1003F000BDE820404FF000064FF000074FF0000826
:100400004FF0000B21F00701AC46ACE8C009ACE8A6
:10041000C009ACE8C009ACE8C0098D46704710B50A
:100420000446AFF300802046BDE81040FFF7C7BE8A
:10043000004870470099002000BFFEE710B54FF458
:10044000005000F029F8012804D103490870400346
:1004500000F004F810BD00003E00002000F08051C4
:1004600011B10349086001E002494860704700008B
:10047000040402400000024021B1026842F001027F
:10048000026004E002684FF6FE731A400260704793
:100490000146486880B2704701460020002201F002
:1004A000805313B1054B1A6801E0054B1A6802EA44
:1004B00001030BB1012000E000207047000402405E
:1004C000000002401AB103680B43036002E00368B6
:1004D0008B430360704710B50022026847F6F07343
:1004E0009A430C6A8B6823430C6923434C6923436A
:1004F0008C692343CC6923434C6A23438C6A23438E
:100500001A430260CB6843600B6883604B68C3602A
:1005100010BD41607047704751B18200A2F1C042E6
:10052000126842F001038200A2F1C042136009E0A8
:100530008200A2F1C0421268034B1A408300A3F16B
:10054000C0431A6070470000FEFF0F00D0E901129F
:100550001143C26811430269114342691143826920
:100560001143C2691143026A1143426A1143826A0C
:100570001143C26A1143026B114302689200A2F157
:10058000C0421160816808290BD101688900A1F17E
:10059000C041096841F0400201688900A1F1C041F1
:1005A0000A60416B0968426B526841EA0211426B72
:1005B000926841EA0221426B928941EA0241426B10
:1005C000128A41EA0251426B127D41EA0261426B9A
:1005D000926911430268521C9200A2F1C04211605C
:1005E000C16AB1F5804F1BD1816B0968826B52687B
:1005F00041EA0211826B926841EA0221826B128AFF
:1006000041EA0251826B127D41EA0261826B92697A
:10061000114302689200A2F1C042C2F8041107E03F
:100620006FF0704201688900A1F1C041C1F8042156
:1006300070472DE9F04102460025002600200023E6
:100640000024002791F803C00CF00F0591F803C0B7
:100650000CF0100CBCF1000F03D091F802C04CEA72
:10066000050591F800C0BCF1000F31D014680020DE
:100670002BE04FF0010C0CFA00F3B1F800C00CEACB
:1006800003069E4220D183004FF00F0C0CFA03F7B3
:10069000BC4305FA03FC4CEA040491F803C0BCF126
:1006A000280F06D14FF0010C0CFA00FCC2F814C060
:1006B0000AE091F803C0BCF1480F05D14FF0010CDE
:1006C0000CFA00FCC2F810C0401C0828D1D31460FA
:1006D000B1F800C0BCF1FF0F34DD546800202EE0FB
:1006E00000F1080C4FF0010808FA0CF3B1F800C053
:1006F0000CEA03069E4221D183004FF00F0C0CFA46
:1007000003F7BC4305FA03FC4CEA040491F803C068
:10071000BCF1280F05D100F1080C08FA0CF8C2F85A
:10072000148091F803C0BCF1480F07D100F1080C08
:100730004FF0010808FA0CF8C2F81080401C082895
:10074000CED35460BDE8F081F0B50A460023002402
:100750000021002500F00046B6F1004F02D11D4EE9
:10076000F16901E01B4E7168C0F3034583B200F4E8
:100770004016B6F5401F08D121F07061154E76681D
:1007800026F07066134F7E6012E000F48016B6F516
:10079000801F06D1032606FA05F4A14341F07061DB
:1007A00006E0460D360103FA06F6B14341F07061EA
:1007B00022B1460D360103FA06F6314300F0004639
:1007C000B6F1004F02D1034EF16101E0014E7160BC
:1007D000F0BD0000000001404161704701617047B9
:1007E00003241FE010480078E0B900222046611C75
:1007F000CCB20E490A5401222046611CCCB20B49EE
:100800000A5403222046611CCCB208490A54084805
:1008100002782046611CCCB204490A54042101200C
:1008200002F02AF9DEE7000000000020B8000020F6
:100830003802002000BFFEE77047000070B50021BD
:1008400000230F22C47804B3154C246804F4E06438
:10085000C4F5E064210AC1F10403CA40447804FAF3
:1008600003F184781440214309010E4C0678A15508
:10087000047804F01F050124AC4005786D11AD002B
:1008800005F1E025C5F8004109E0047804F01F05F2
:100890000124AC40044D0678761145F8264070BD21
:1008A0000CED00E000E400E080E100E002490143DB
:1008B000024A1160704700000000FA050CED00E0EC
:1008C0007047000029B1064A52690243044B5A613D
:1008D00004E0034A52698243014B5A6170470000A9
:1008E0000010024029B1064AD2690243044BDA6182
:1008F00004E0034AD2698243014BDA617047000089
:100900000010024029B1064A92690243044B9A61E1
:1009100004E0034A92698243014B9A6170470000E8
:100920000010024030B500210022002400232D4D8C
:100930006D6805F00C0121B1042905D0082923D1E7
:1009400005E0294D056022E0274D05601FE0254D9B
:100950006D6805F47012234D6D6805F4803402252E
:1009600005EB92421CB9214D554305600BE01D4D2E
:100970006D6805F400351DB11C4D5543056002E05E
:10098000194D5543056002E0174D056000BF00BFDB
:10099000144D6D6805F0F0010909154D6B5C056893
:1009A000DD4045600F4D6D6805F4E061090A104DAA
:1009B0006B5C4568DD4085600A4D6D6805F46051EB
:1009C000C90A0B4D6B5C4568DD40C560054D6D681F
:1009D00005F44041890B074D6B5CC568B5FBF3F529
:1009E000056130BD0010024000127A0000093D0090
:1009F000010000201100002021B1028842F04002D5
:100A0000028004E002884FF6BF731A4002807047EC
:100A100010B50022028802F441520B884C8823430F
:100A20008C882343CC8823430C8923434C8923435C
:100A30008C892343CC8923431A430280838B4FF252
:100A4000FF74234083830B8A038210BD704710B567
:100A500000F002F810BD00000CB5002001900090DD
:100A60003348006840F480303149086000BF3048A6
:100A7000006800F4003000900198401C019000983C
:100A800018B90198B0F5A06FF1D12948006800F4B9
:100A9000003010B10120009001E00020009000988B
:100AA000012843D12348006840F010002149086024
:100AB0000846006820F0030008600846006840F01F
:100AC000020008601A4840681949486008464068B2
:100AD00048600846406840F48060486008464068C6
:100AE00020F47C1048600846406840F4E8104860F4
:100AF0000846006840F08070086000BF0C4800683D
:100B000000F000700028F9D00948406820F0030088
:100B1000074948600846406840F00200486000BF4E
:100B20000348406800F00C000828F9D10CBD000013
:100B300000100240002002407047000010B513482A
:100B4000006840F0010011490860084640681049FB
:100B500008400E494860084600680E4908400B49A5
:100B600008600846006820F4802008600846406855
:100B700020F4FE0048604FF41F008860FFF767FF15
:100B80004FF000600449086010BD000000100240F2
:100B90000000FFF8FFFFF6FE08ED00E010B50121B0
:100BA000054800F029F8012805D101F09DFE01213A
:100BB000014800F012F810BD0010004021B1028879
:100BC00042F08002028004E002884FF67F731A40F0
:100BD00002807047CA4302827047CA43028270474C
:100BE00021B1028842F00102028004E002884FF63F
:100BF000FE731A400280704730B502460020002381
:100C00000024158A05EA0103958905EA010413B158
:100C10000CB1012000E0002030BD1AB183890B43E4
:100C2000838102E083898B438381704770B5002400
:100C300000220023058C4FF6EF7635400584028CA8
:100C40008388048B48F6FF752C404FF6FF452C40F7
:100C50000D884FF6FF7606EA05252C434FF6DF7523
:100C60002A400D8906EA05152A434D8806EA05152E
:100C70002A43154DA84202D0144DA8421DD14FF66B
:100C80007F752A404D894FF6FF7606EA05152A43FF
:100C90004FF6BF752A408D8806EA05152A434FF6A0
:100CA000FF352B404FF2FF752B408D8906EA8505F5
:100CB0002B43CD8906EA85052B4383800483CD88A9
:100CC0000587028470BD0000002C01400034014003
:100CD0000A460021018B4FF2FF7319404FF6FF7354
:100CE00003EA0223194301837047000070B5002412
:100CF00000220023058C4FF6FF6635400584028CE8
:100D00008388848B4FF68F752C404FF6FC752C40F2
:100D10000D882C434FF6FF552A400D894FF6FF767C
:100D200006EA05252A434D8806EA05252A43154D7E
:100D3000A84202D0144DA8421DD14FF2FF752A409F
:100D40004D894FF6FF7606EA05252A434FF6FF3513
:100D50002A408D8806EA05252A434EF6FF752B406A
:100D60004DF6FF752B408D8906EA05152B43CD897D
:100D700006EA05152B4383808483CD88858702840A
:100D800070BD0000002C0140003401400A460021E3
:100D9000818B4FF6F7731940114381837047000030
:100DA00070B5002200230024058C4EF6FF763540F6
:100DB0000584038C8488828B48F6FF752A404FF6A1
:100DC000FF452A400D884FF6FF7606EA05252A439F
:100DD0004DF6FF752B400D8906EA05352B434D88EE
:100DE00006EA05352B430B4DA84202D00A4DA84216
:100DF00008D14BF6FF752C408D894FF6FF7606EA39
:100E000085152C4384808283CD88A0F840500384CC
:100E100070BD0000002C0140003401400A46002152
:100E2000818B4FF2FF7319404FF6FF7303EA0223E1
:100E30001943818370470000002202881D4B9842AD
:100E40000ED01D4B98420BD0B0F1804F08D01B4BF9
:100E5000984205D01A4B984202D01A4B984204D1BE
:100E60004FF68F731A404B881A43174B984207D09E
:100E7000164B984204D04FF6FF431A40CB881A43D2
:100E800002808B8883850B8803850A4B98420BD0A0
:100E9000094B984208D00E4B984205D00D4B984212
:100EA00002D00D4B984201D10B7A03860123838235
:100EB00070470000002C0140003401400004004055
:100EC00000080040000C00400010004000140040EA
:100ED00000400140004401400048014010B500249A
:100EE00040F22441124800F05AF801281FD140F284
:100EF00024410F4800F022F80D4800F00BF90021C2
:100F00000C48FFF7B9FA0B48FFF7C2FAC0F14000EE
:100F100084B22246084901F1820001F0F2FA402130
:100F20000448FFF7F6FA01210248FFF7A5FA10BDC1
:100F300000380140580002407800002010B500221F
:100F4000002340F66A14A14200D100BF0A12012416
:100F50009440A3B2DC43048010BD21B1828942F4E5
:100F60000052828104E082894DF6FF731A4082812B
:100F700070471AB1838A0B43838202E0838A8B43D2
:100F80008382704702460020B1F5007F00D100BF88
:100F900013880B400BB1012000E00020704770B5B2
:100FA0000246002400230025002040F66A16B142C4
:100FB00000D100BFC1F3421501F01F03012606FA5C
:100FC00003F3012D02D19689334006E0022D02D1B0
:100FD000168A334001E0968A33400C12012606FA45
:100FE00004F41688344013B10CB1012000E0002055
:100FF00070BDF0B50346002400260025002040F611
:101000006A17B94200D100BF1846C1F3421401F07B
:101010001F06012707FA06F5012C01D10C3004E068
:10102000022C01D1103000E014301AB107682F43B0
:10103000076002E00768AF430760F0BD2DE9F047A5
:1010400086B005460E460024A24600BFA1460027F2
:10105000B08900B100BF2F462C8A4CF6FF700440C7
:10106000F08804432C82AC894EF6F3100440B0881B
:1010700031890843718908430443AC81AC8A4FF637
:10108000FF400440B0890443AC8201A8FFF74AFC4A
:101090001F48874202D1DDF810A001E0DDF80CA066
:1010A000A88900F4004040B10AEBCA0000EB0A1026
:1010B00031684900B0FBF1F807E00AEBCA0000EB29
:1010C0000A1031688900B0FBF1F86420B8FBF0F039
:1010D00004012009642101FB1089A88900F4004063
:1010E00040B1322000EBC900B0FBF1F000F0070086
:1010F000044308E0322000EB09106421B0FBF1F05A
:1011000000F00F0004432C8106B0BDE8F08700001A
:101110000038014001468888C0F308007047C1F3D9
:1011200008028280704700BFFEE7000010B500246F
:101130000CE000F00FF80649884205D0601CC4B2EC
:10114000052C03DD002010BD0120FCE7F1E70000C5
:101150001740EF002DE9F04101210F48FFF73CFB5C
:101160009F2001F053FBFF2001F050FB0446FF20BD
:1011700001F04CFB0546FF2001F048FB064601212B
:101180000548FFF72BFB200440EA052040EA06074C
:101190003846BDE8F08100000010014000BF7047F4
:1011A000014903C97047000030000020017801297F
:1011B00001D1014A117070472000002001780629F2
:1011C00034D2DFE801F0030B131B232B1949497EAE
:1011D00021F00101491C174A517628E01549497E42
:1011E00021F00201891C134A517620E01149497E01
:1011F00021F00401091D0F4A517618E00D49497E7E
:1012000021F0080108310B4A517610E00949497E66
:1012100021F010011031074A517608E00549497E56
:1012200021F020012031034A517600E000BF00BFC9
:1012300070470000380200207047000078B50A4669
:101240000021009101788DF8001041788DF801108F
:101250009DF80010122902D034291AD10BE09DF814
:101260000110342906D101211F4B597200211F4B57
:10127000198078BD00BF9DF80110122908D1002106
:10128000194B5972194B19800121174B1970F0E74E
:1012900000BF00BF00BF1449497A012922D10021B3
:1012A0001EE04B1CC35C8DF80030435C8DF80130B0
:1012B0000E4B1B88B3F5964F00D1DAE79DF801304D
:1012C0009DF8004043EA0424084B1D881B885B1CE2
:1012D000064E3380044B1A3323F815408B1CD9B2C9
:1012E0009142DEDB00BFC4E7380200202A00002064
:1012F0003648407EC0F34000E8B13448407E20F0DC
:1013000002013248417640690178304840694078AE
:10131000401E814207D12D4840694078401E2B492C
:101320004969087051E0294840690078401C274904
:101330004969087049E02548407E00F00100A8B1E5
:101340002248407E20F00101204841764069007823
:1013500020B900201D494969087036E01B484069E2
:101360000078401E1949496908702EE01748407EF0
:10137000C0F3800030B11548407E20F004011348CE
:10138000417622E01148407EC0F3C00030B10F48E2
:10139000407E20F008010D48417616E00B48407E63
:1013A000C0F3001030B10948407E20F0100107481A
:1013B00041760AE00548407EC0F3401028B103485A
:1013C000407E20F02001014841767047380200201D
:1013D00070B50446207828B9607813490870886889
:1013E00080471FE02078012807D160780E49887077
:1013F000A078C870E078087114E02078022811D134
:101400006078094948700846407802280AD1E07897
:10141000A17840EA0120C31705462A460248203039
:1014200001F058FA70BD00004800002010B50446D5
:101430002CB14FF480510548FFF7CEF904E04FF48A
:1014400080510248FFF7CAF910BD000000140140A6
:1014500001B500BF0098411E00910028FAD108BDD7
:1014600010B50246072A00DD10BD20480270104664
:1014700002EBD0714910A2EB410119B9F0234FF4EE
:10148000A07402E04FF4A073F024362000F000FCBA
:10149000082141EA421000F0FFFB2A2000F0F8FB8F
:1014A000002000F0F9FB002000F0F6FB591EC1F30C
:1014B000072000F0F1FB591EC8B200F0EDFB2B2015
:1014C00000F0E6FB002000F0E7FB002000F0E4FB6A
:1014D000611EC1F3072000F0DFFB611EC8B200F0FF
:1014E000DBFB2C2000F0D4FB00BFBDE73A0000205E
:1014F00010B500F02BFC00F063FD074800F0D2FBB4
:101500000120FFF793FF00F0FFFA00F0DBF903483A
:101510000078FFF7A5FF10BD520200203A0000201E
:1015200010B5552200232C4801F0D4F900202B4996
:101530000870022048700020088529A048622CA06D
:1015400048602EA12548816000202F4908700120A5
:101550004870002008852DA048622FA04860002018
:1015600034490870062048700020088532A048627F
:1015700034A0486036A12F48816038A1C1603AA1EB
:1015800001613CA141613EA181614FF6FF703F497D
:1015900048814FF4FC613D48818140F21F51C18177
:1015A0004FF6E07101820020384948700021374829
:1015B00081707821C170002101714171A021817178
:1015C0007821C171A02101720020304908700348C0
:1015D00048610020487210BDF09800205498002007
:1015E000494C49393334312056312E302E300000E9
:1015F000312E73686F772D7069630000322E737916
:10160000732D696E666F0000BC980020312E7379CF
:10161000732D696E666F0000202020205469687366
:10162000206973206120646973706C61792064653E
:101630006D6F000088980020322E73686F772D70D0
:1016400069630000312E312E7069632D3100000076
:10165000312E322E7069632D32000000312E332E70
:101660007069632D33000000312E342E7069632DB4
:1016700034000000312E352E7069632D35000000D6
:10168000312E362E7069632D36000000380200209E
:1016900070B5574801F002F900287BD05548407AD0
:1016A000002877D1524801F00EF9FFF721FE51488A
:1016B000007830B101285CD002285BD003287BD1B0
:1016C0006AE0002009E04B490A780A3131F812201B
:1016D000103121F81020411C88B2B0F5964FF2DB92
:1016E00044494969486AFEF792FDC4B241484069DD
:1016F0002246416A002000F09DFA4FF4076006E0A0
:1017000000223C491A3121F81020411C88B240F6D1
:10171000E8018842F4DB002416E036494969091DD6
:1017200051F82400FEF773FDC5B2324A5269121D0A
:1017300052F8241004EB8402920002F114002A46AD
:1017400000F078FA601CC4B22A4840694078A04290
:10175000E3DC284840692849884209D0254949697D
:10176000097801EB8101890001F1140000F036FADB
:1017700023E022E0002009E01E490A780A3131F80E
:101780001220103121F81020411C88B2B0F5964F7C
:10179000F2DB12E02BE00FE0002009E015490A78A7
:1017A0000A3131F81220103121F81020411C88B282
:1017B000B0F5964FF2DB00E000BF00BF0D4A137892
:1017C000521C02EB430251780A4A1378521C12F859
:1017D0001300A023782200F011F82C2000F058FA12
:1017E0004FF4964000F0A0FA00200249087070BD46
:1017F000F098002038020020BC98002030B5044644
:101800000D462A2000F044FA200A00F045FAE0B222
:1018100000F042FAA118491EC1F30F2000F03CFA73
:10182000A118491EC8B200F037FA2B2000F030FA98
:10183000280A00F031FAE8B200F02EFAE918491E41
:10184000C1F30F2000F028FAE918491EC8B200F0D1
:1018500023FA30BD00B50022042000F019FA00F090
:101860002BF800F029F800F027F802464FF6FF7039
:1018700000EA022200F020F8024348F2525082426D
:1018800001D1104600BDD32000F002FA00F014F898
:1018900000F012F800F010F802464FF6FF7000EA70
:1018A000022200F009F8024349F24130824201D19C
:1018B0001046E7E70020E5E7014800887047000090
:1018C0000000026000B5FFF7C5FF8D4908808D4814
:1018D000FFF7BEFDCF2000F0DBF9002000F0DCF9BF
:1018E000812000F0D9F9302000F0D6F9ED2000F089
:1018F000CFF9642000F0D0F9032000F0CDF91220D8
:1019000000F0CAF9812000F0C7F9E82000F0C0F922
:10191000852000F0C1F9102000F0BEF9782000F019
:10192000BBF9CB2000F0B4F9392000F0B5F92C2038
:1019300000F0B2F9002000F0AFF9342000F0ACF96B
:10194000032000F0A9F9F72000F0A2F9202000F010
:10195000A3F9EA2000F09CF9002000F09DF9002096
:1019600000F09AF9B12000F093F9002000F094F90A
:101970001B2000F091F9B62000F08AF90A2000F04F
:101980008BF9A22000F088F9C02000F081F9352001
:1019900000F082F9C12000F07BF9112000F07CF901
:1019A000C52000F075F9452000F076F9452000F0DB
:1019B00073F9C72000F06CF9A22000F06DF9F22055
:1019C00000F066F9002000F067F9262000F060F9C9
:1019D000012000F061F9E02000F05AF90F2000F03A
:1019E0005BF9262000F058F9242000F055F90B206F
:1019F00000F052F90E2000F04FF9092000F04CF9E8
:101A0000542000F049F9A82000F046F9462000F0E3
:101A100043F90C2000F040F9172000F03DF90920AF
:101A200000F03AF90F2000F037F9072000F034F900
:101A3000002000F031F9E12000F02AF9002000F048
:101A40002BF9192000F028F91B2000F025F90420BB
:101A500000F022F9102000F01FF9072000F01CF917
:101A60002A2000F019F9472000F016F9392000F07B
:101A700013F9032000F010F9062000F00DF90620FC
:101A800000F00AF9302000F007F9382000F004F9DE
:101A90000F2000F001F9362000F0FAF8C82000F01D
:101AA000FBF82A2000F0F4F8002000F0F5F8002000
:101AB00000F0F2F8002000F0EFF8EF2000F0ECF872
:101AC0002B2000F0E5F8002000F0E6F8002000F000
:101AD000E3F8012000F0E0F83F2000F0DDF83A20C4
:101AE00000F0D6F8552000F0D7F8112000F0D0F81B
:101AF00042F6FC30FFF7ACFC292000F0C9F800BD2D
:101B00003800002040420F0010B502210648FEF7C1
:101B100063FE0648FFF79CFC02210348FEF75EFEC9
:101B20000248FFF795FC10BD0018014020A10700F6
:101B30002DE9F04F04460D4616460022A6F1200C72
:101B40001FFA8CF8DFF88CA0BAF804A0DFF884B094
:101B5000BBF806B00AFB0BFC4FEAEC7A0CEB5A7AA6
:101B6000CAF3C707DFF86CC0DCF800C008FB07C980
:101B700005F1010CCCEB0C1C04EBCC0C1FFA8CF225
:101B8000002022E0002116E019F800A04FF0800CA0
:101B90004CFA01FC0AEA0C0ABAF1000F03D0DFF894
:101BA00038C02CF8123002F1010C1FFA8CF201F14E
:101BB000010C0CF0FF010829E6DB02F1700C1FFAA2
:101BC0008CF200F1010C0CF0FF00B842DADBBDE84A
:101BD000F08F0000400000205202002070B5044643
:101BE0005A2512A61EE02846114989880844F02883
:101BF00004DD00250E48C088204484B220460C49EC
:101C0000C9880844B0F5A07F01DD002500243278A2
:101C1000002321462846FFF78BFF761C0448808866
:101C2000284485B230780028DDD170BD3C2D2D00D0
:101C300040000020F0B504460D46174600261EE081
:101C40003046124989880844782804DD00260F4868
:101C5000C088204484B220460C49C9880844B0F5A5
:101C6000A07F01DD002600242A780023214630468B
:101C7000FFF75EFF6D1C05488088304486B2381E31
:101C8000A7F10101CFB2DBD1F0BD00004000002080
:101C90004FF0C0410880704701490880704700003C
:101CA0000000026010B58CB0044601210846FEF722
:101CB00009FE64200490002003904FF480400B90B4
:101CC000164802904FF4806008900020069009901A
:101CD00001944FF4807007904020059080010A9095
:101CE00001A90F48FEF7F7FB0E208DF80000002039
:101CF0008DF8010003208DF8020001208DF803000B
:101D00006846FEF79BFD012202210548FEF7DAFB3B
:101D100001210448FEF7B0FB0CB010BD00000260CA
:101D2000440002404404024010B504460021064825
:101D3000FEF7A2FB21460448FEF7EBFB0121024817
:101D4000FEF79AFB10BD00004400024008B50121D7
:101D50002020FEF7D7FD01214020FEF7D3FD032010
:101D60008DF8020018208DF803004FF48040ADF884
:101D7000000069469048FEF75CFC03208DF80200E5
:101D800018208DF803004FF40040ADF800006946BC
:101D90008948FEF74EFC03208DF8020018208DF8CC
:101DA00003000120ADF8000069468348FEF741FCBE
:101DB00003208DF8020018208DF803000220ADF8F2
:101DC000000069467C48FEF734FC03208DF80200D1
:101DD00018208DF803008020ADF800006946774890
:101DE000FEF727FC03208DF8020018208DF8030071
:101DF0004FF48070ADF8000069467048FEF719FC9A
:101E000003208DF8020018208DF803004FF40070B5
:101E1000ADF8000069466948FEF70BFC03208DF819
:101E2000020018208DF803004FF48060ADF8000028
:101E300069466248FEF7FDFB03208DF8020018207A
:101E40008DF803004FF40060ADF8000069465B4870
:101E5000FEF7EFFB03208DF8020018208DF8030039
:101E60004FF48050ADF8000069465448FEF7E1FB9E
:101E700003208DF8020018208DF803004FF4005065
:101E8000ADF8000069464D48FEF7D3FB03208DF8FE
:101E9000020018208DF803004FF48040ADF80000D8
:101EA00069464648FEF7C5FB03208DF8020018205E
:101EB0008DF803004FF40040ADF8000069463F483C
:101EC000FEF7B7FB03208DF8020018208DF8030001
:101ED0004FF48070ADF8000069463748FEF7A9FB63
:101EE00003208DF8020018208DF803004FF40070D5
:101EF000ADF8000069463048FEF79BFB03208DF8E3
:101F0000020018208DF803004FF48060ADF8000047
:101F100069462948FEF78DFB03208DF80200182042
:101F20008DF803001020ADF8000069462248FEF746
:101F300080FB03208DF8020018208DF8030020207C
:101F4000ADF8000069461C48FEF773FB03208DF8CE
:101F5000020018208DF803008020ADF800006946CB
:101F60001548FEF766FB03208DF8020018208DF857
:101F700003004FF40060ADF8000069460E48FEF71C
:101F800058FB03208DF8020010208DF8030002207A
:101F9000ADF8000069460948FEF74BFB03208DF8B9
:101FA000020010208DF803000002ADF80000694621
:101FB0000148FEF73EFB08BD001401400018014037
:101FC00000B597B001210802FEF77CFC4FF080506D
:101FD00007900020029001200190002004900590BD
:101FE00006900420039000200D9006200890002009
:101FF0000C900990139010200B9008200A9001A8D3
:1020000015900020129010900E900F9014904FF4A5
:102010008050119001A8169008A8FEF797FA0121A8
:102020000620FEF779FA17B000BD000000B589B0B0
:1020300001210920FEF766FC01210220FEF752FC77
:1020400001213F48FEF780FB2020ADF80400182056
:102050008DF8070003208DF8060001A93948FEF726
:10206000E8FA0120ADF8040018208DF807000320DD
:102070008DF8060001A93348FEF7DBFA0220ADF81F
:10208000040018208DF8070003208DF8060001A930
:102090002C48FEF7CEFAFF20ADF81C004FF47A6012
:1020A000ADF818000020ADF81E00ADF81A0006A922
:1020B0002548FEF7C1FE6020ADF808000120ADF80C
:1020C0000A000020ADF80E000220ADF8100002A9B1
:1020D0001D48FEF7ABFD08211B48FEF7F9FD02A9DC
:1020E0001948FEF703FE08211748FEF74FFE02A924
:1020F0001548FEF755FE08211348FEF78FFE012113
:102100001148FEF75BFD00200F4938310880091D9A
:102110000880091D088001210B48FEF761FD0B486E
:102120000B4988600B490A48C16001200849487082
:102130000A22002301F1100000F0CCFB09B000BD21
:1021400000081A00000C0140000400407D21000836
:102150004800002059210008064880780649088078
:102160000448C078091D088002480079091D0880CC
:102170007047000048000020380400400D480078F7
:1021800001280CD10B4880780B4908800948C07899
:10219000091D088007480079091D088009E00548E5
:1021A000007830B9002004490880091D0880091D05
:1021B00008807047480000203804004010B52E48C1
:1021C00000F06CFB002856D02B481038007800280F
:1021D00051D0294800F077FB274810384078012873
:1021E0000FD12548103880782449088022481038BB
:1021F000C078091D0880204810380079091D088022
:1022000039E01D481038407838B900201B49088053
:10221000091D0880091D08802DE0174810384078F6
:10222000022828D11448103000F038FB18B31248A7
:10223000103000F048FB1248007850B901201049D6
:10224000087000200D490880091D0880091D0880BC
:1022500011E000200A4908700748103880780749C3
:10226000088005481038C078091D088002481038D9
:102270000079091D088010BD580000203804004076
:10228000150000204FF44070FEF710FB00F05AFBE1
:10229000FFF7CCFE00F0D2FA00F084FAFEF746FF1A
:1022A000FFF726F9FFF73CF905E0FFF787FF00F09D
:1022B000BBF8FFF7EDF9F8E770B5ADF5447DFC220A
:1022C0004A496846FDF7C2FF4FF486724749103904
:1022D00041A8FDF7BBFF41A80FC800F0BBF80128DB
:1022E00002D10DF5447D70BD40489238B0F882109F
:1022F0008D30405CAA2871D1062084A9FC22CDE94A
:102300003F103A496846FDF7A1FF4FF486723749FE
:10231000103941A8FDF79AFF41A80FC800F0D6F880
:102320009DF81202841D84A8FC223049CDE93F04A7
:102330006846FDF78BFF4FF486722C49103941A88F
:10234000FDF784FF41A80FC800F0C0F8A04200D0FC
:10235000C7E700250026E01E84A9085CA84209D131
:10236000A01E085CB04205D122462048103800F07B
:102370008BF804E01D48103800F03AF8B1E79DF8FA
:10238000110211281AD005DC48B101280CD002280E
:1023900022D10EE0202812D021281DD114E00DF208
:1023A0001320FEF703FF18E00DF21320FEF744FFA1
:1023B00013E00DF21320FFF70BF80EE00DE00DF225
:1023C0001320FEF7FBFE08E09DF812120DF2132019
:1023D000FEF734FF01E001E000BF04E003481038DD
:1023E00000F006F87DE700BF7BE700000A0100204F
:1023F00000BF0188491C828891FBF2F302FB131194
:102400000180C188491CC1800189491E018102885F
:1024100000F10B01895CAA2904D0C2888188891F38
:102420008A42E6DC7047000010B5064800F036FA34
:1024300030B1044800F047FA00F006F8FFF73CFF1F
:1024400010BD00000602002010B500F087F800F073
:1024500027F910BD0FB40220BDF80010BDF802200E
:10246000914204D19DF80A1009B901200AE0BDF893
:102470000010BDF80220914204D19DF80A100129F4
:1024800000D1022004B0704770B503461C89944205
:1024900000DA1A89104613E01D8803F10B04645D0D
:1024A00001F8014B1C88641C9D8894FBF5F605FB24
:1024B00016441C80DC88641CDC801C89641E1C8122
:1024C000141EA2F10105AAB2E6D170BD0FB430B559
:1024D000469D479CBDF80C1000200CE0BDF8102074
:1024E0008A4200D100210DF11702525C2A54421C8D
:1024F00090B24A1C91B2A042F0DB204630BC5DF89D
:1025000014FB30B50346D888904200DB09B900209F
:1025100030BD13E011F8014B5D8803F10B00445509
:102520005888401C9C8890FBF4F504FB15005880EB
:10253000D888401ED8801889401C1881101EA2F12E
:102540000104A2B2E6D158881C88A04202D1012021
:10255000987201E0002098720120D9E710B5032499
:102560004C4800F09BF900287ED04B4800780028AA
:102570007AD1484800F0A7F940214848FDF7ABFE62
:1025800031222046611CCCB244490A542046611CC9
:10259000CCB242490A5433222046611CCCB23F4996
:1025A0000A5434222046611CCCB23C490A545622BB
:1025B0002046611CCCB239490A5431222046611CA4
:1025C000CCB236490A542E222046611CCCB2334983
:1025D0000A5430222046611CCCB230490A542E22C3
:1025E0002046611CCCB22D490A5430222046611C81
:1025F000CCB22A490A5446222046611CCCB2274953
:102600000A5469222046611CCCB224490A54722221
:102610002046611CCCB221490A5465222046611C27
:10262000CCB21E490A542D222046611CCCB21B4953
:102630000A5443222046611CCCB218490A546F2226
:102640002146601CC4B2154842546D222046611CCC
:10265000CCB212490A5470222046611CCCB20F49F8
:102660000A546122204600E012E0611CCCB20B4902
:102670000A5473222046611CCCB208490A542046F1
:10268000611CCCB205490A543221002000F0F4F953
:1026900010BD00001602002020000020B80000201D
:1026A00010B503241A4800F0F9F800282ED0184875
:1026B00000F009F9174802782046611CCCB216498F
:1026C0000A5414480078401C1249087013480278D4
:1026D0002046611CCCB210490A54114802782046A9
:1026E000611CCCB20C490A540E4802782046611C89
:1026F000CCB209490A5407480078FF2802DB0020C1
:10270000044908700421012000F0B6F910BD000052
:10271000260200202C000020B80000202800002005
:10272000290000203802002008B501210420FEF70E
:10273000E9F801211020FEF7E5F80120ADF80000CE
:1027400010208DF8030003208DF80200694613481D
:10275000FDF76FFF2020ADF8000018208DF8030072
:1027600069460F48FDF765FF8020ADF8000018208E
:102770008DF8030069460A48FDF75BFF4020ADF87D
:10278000000004208DF8030069460548FDF751FF5D
:1027900001210248FEF722F808BD000000100140A8
:1027A0000008014010B500F003F8FFF7BDFF10BDB1
:1027B00000B585B001210803FEF7A4F80020ADF8AC
:1027C00000004FF48270ADF802000020ADF8040064
:1027D0000220ADF806000120ADF808004002ADF877
:1027E0000A000820ADF80C000020ADF80E0007200C
:1027F000ADF8100069460448FEF70AF901210248C5
:10280000FEF7FAF805B000BD00300140014600BFF8
:102810000948008900F002000028F9D006488181AB
:1028200000BF0548008900F001000028F9D00248E7
:102830008089C0B270470000003001401FB50121FF
:102840001020FEF74FF84FF47A70ADF808004720DB
:10285000ADF8040001A91048FEF7EEFA01210E4878
:10286000FEF7B8F9012211460B48FEF7D6F901210F
:102870000948FEF7B5F936208DF8000000208DF8E4
:10288000010003208DF8020001208DF80300684646
:10289000FDF7D4FF1FBD000000100040F0B5024658
:1028A000FEF77EFC16685768851B61EB07016B1C01
:1028B00041F100049168D068C91AA04101D20120F9
:1028C000F0BD0020FCE700B50246FEF769FC106091
:1028D000516000BD10B50446A260E360FEF760FCE5
:1028E0002060616010BD00000448D0E900305A1C2F
:1028F00040F100000149C1E900207047300000208C
:1029000008B501210420FDF7FDFF4FF40070ADF87C
:10291000000018208DF8030003208DF8020069469E
:102920000748FDF786FE4FF48060ADF800000420F4
:102930008DF8030069460248FDF77BFE08BD0000E4
:102940000008014010B5FFF7DBFF00F017F80F2279
:1029500000230948FFF7BEFF4FF47A7200230648B0
:102960001030FFF7B7FF4FF47A720023024820308F
:10297000FFF7B0FF10BD00000602002000B591B0C7
:1029800001218803FDF7BEFF01210846FDF79AFFEC
:102990004FF416500D900020ADF840000C20ADF81B
:1029A0003E000020ADF83C00ADF83A00ADF838002C
:1029B0000DA92E48FEF742FB01212C48FEF7CDFA67
:1029C000012240F224412948FEF713FB25208DF80F
:1029D000300001208DF833008DF831008DF8320081
:1029E0000CA8FDF72BFF40200490002003900B90D3
:1029F0001F48029000200890802006902020099017
:102A00001A48001D01900020079005904FF4805057
:102A10000A9001A91748FDF75EFD01211548FDF751
:102A20002BFD00201249A1F8820000211048A0F8D7
:102A300084104FF48071A0F88610A0F8881000214F
:102A4000A0F88A1080F88C104FF480718D30FDF75B
:102A500042FC012240210548FEF78BFA0122802129
:102A60000248FEF786FA11B000BD000000380140B0
:102A700078000020580002402DE9F04107460D463D
:102A8000A81DC4B2AA20154981F84000084680F864
:102A9000417080F842500022E11E40304254A01E96
:102AA0000E4940310A54BB22611E0C48403042544A
:102AB00000260EE009484030815D0948FEF72FFBF3
:102AC00000BF40210648FEF75DFA0028F9D0701CCF
:102AD000C6B2A642EEDBBDE8F0810000780000201F
:102AE000003801400000000000000000000000006D
:102AF0000000000000000018181818181808000836
:102B0000180000000000003424242400000000000D
:102B1000000000000000000016247F2424247E24EE
:102B200024000000000000083E6848681C161212CD
:102B30007C10100000000061D2967408101629491C
:102B4000C6000000000000003C646438724ACE46B3
:102B50007F00000000000018181818000000000096
:102B60000000000000000004081810303030301061
:102B700010180C04000000201008080C0404040CB9
:102B800008181020000000080A341C6A0800000021
:102B9000000000000000000000001818187F18183E
:102BA00018000000000000000000000000000018F5
:102BB000180830000000000000000000003C000089
:102BC00000000000000000000000000000000018ED
:102BD000180000000000000206040C080810102075
:102BE00020400000000000003C6642475B734266E4
:102BF0003C00000000000000187848080808080899
:102C00007E000000000000003C460606040810207C
:102C10007E000000000000007C0606043C02020664
:102C20007C000000000000000C1C14246444FF041D
:102C300004000000000000007E6060607E0202066A
:102C40007C000000000000001E30604876424262B6
:102C50003C000000000000007E0206040C08181072
:102C600030000000000000003C6242361C66424218
:102C70003C000000000000003C664242661A02046C
:102C80007800000000000000000018180000001884
:102C900018000000000000000000181800000018D4
:102CA0001808300000000000000004183060100C0C
:102CB0000600000000000000000000007E007E0012
:102CC00000000000000000000000301804060C1096
:102CD00020000000000000301C060606181000103E
:102CE000100000000000001C224141DDB5A5A5AF89
:102CF00094C0403C00000000181C342426627E432F
:102D0000C1000000000000007C4642467C42424276
:102D10007C000000000000001E2040404040406059
:102D20003E000000000000007C4642434343424610
:102D300078000000000000007E6060607E606060DF
:102D40007E000000000000007E6060607E606060C9
:102D500060000000000000001E604040CE42426261
:102D60003E00000000000000424242427E424242D9
:102D700042000000000000007E18181818181818EB
:102D80007E000000000000007C04040404040444ED
:102D900078000000000000004244485070584C4445
:102DA00042000000000000002020202020202020E1
:102DB0003E000000000000006266675F5B5BC1C10F
:102DC000C100000000000000626272525A4A4E4682
:102DD00046000000000000003C6243C3C3C34362DE
:102DE0003C000000000000007C4642424678404023
:102DF00040000000000000003C6243C3C3C34362C4
:102E00003C180F00000000007C6662667C6C646603
:102E100062000000000000003E6040601C060202EC
:102E20007C000000000000007F18181818181818FF
:102E3000180000000000000042424242424242624A
:102E40003C00000000000000C14342622624341C04
:102E50001800000000000000C1C141495B5B7666BC
:102E6000660000000000000043663418181C246649
:102E7000C300000000000000C14266341C1818188E
:102E800018000000000000007E02040C18102060F2
:102E90007E0000000000001C101010101010101018
:102EA0001010101C000000402020101008080C0416
:102EB000060200000000003C0C0C0C0C0C0C0C0C6E
:102EC0000C0C0C3C00000000181C246200000000E8
:102ED00000000000000000000000000000000000F2
:102EE000000000FF000000201000000000000000B3
:102EF000000000000000000000003C06023E4246C8
:102F00007A0000000000004040405C6242424242C1
:102F10007C0000000000000000001E2060406020D7
:102F20003E0000000000000202023E624242426691
:102F30003A0000000000000000003C62427E406059
:102F40003E0000000000000F1810107E101010103E
:102F5000100000000000000000003F66426658407C
:102F60003E43423C0000004040405C6242424242DC
:102F7000420000000000001818007808080808083F
:102F80007E000000000000040C007C040404040423
:102F900004040C78000000606060626C7870686403
:102FA0006200000000000078080808080808080807
:102FB0007E000000000000000000764B4B4B4B4BA6
:102FC0004B0000000000000000005C6242424242F0
:102FD000420000000000000000003C6242434262E8
:102FE0003C0000000000000000005C6242424242DF
:102FF0007C4040400000000000003E6242424266C9
:103000003A0202020000000000006E72636060601D
:10301000600000000000000000003E20203C06028E
:103020007C000000000000001010FE1010101010B6
:103030001E000000000000000000424242424266C2
:103040003A000000000000000000434266243418EB
:1030500018000000000000000000C1C15B5A5E665D
:103060006600000000000000000062261C181C26FC
:103070006200000000000000000043426624341C8F
:10308000181830E00000000000007E060C18102028
:103090007E0000000000000E18101010307010109C
:1030A0001010180E0000080808080808080808088A
:1030B0000808080800000030180808080C0E080866
:1030C000080818300000000000000000714B0600E6
:1030D0000000000056312E302E3000004669726527
:1030E00020436F6D70617373000000000C310008A5
:1030F00000000020480000006C0100085431000866
:103100004800002018A3000088010008000000000B
:103110000001020304010203040607080902040671
:1031200008000000D4300008DC3000080000000077
:10313000000000000000000000000000000000008F
:103140000000000000000600FFFF0100E42A000864
:043150000800100063
:0400000508000131BD
:00000001FF
